:100000000C9434000C943E000C943E000C943E0082
:100010000C943E000C943E000C943E000C943E0068
:100020000C943E000C943E000C943E000C943E0058
:100030000C943E000C943E000C943E000C943E0048
:100040000C943E000C943E000C943E000C943E0038
:100050000C943E000C943E000C943E000C943E0028
:100060000C943E000C943E0011241FBECFEFD8E04C
:10007000DEBFCDBF0E9473000C948A000C94000078
:1000800028B1206128B928B12F7D28B907C0EFE930
:10009000FFE03197F1F700C0000001970097B9F732
:1000A000089528B1206228B928B12F7E28B907C049
:1000B000EFE9FFE03197F1F700C0000001970097EA
:1000C000B9F7089528B12F7E28B928B12F7D28B916
:1000D00007C0EFE9FFE03197F1F700C0000001979A
:1000E0000097B9F7089587B1806187B987B18062B9
:1000F00087B984EC99E00E94400084EC99E00E946A
:10010000620084EC99E00E94510084EC99E00E9426
:080110006200EFCFF894FFCF6D
:00000001FF
