S00E000042757A7A65722E7372656394
S11300000C9434000C9449000C9449000C9449005D
S11300100C9449000C9449000C9449000C94490038
S11300200C9449000C9449000C9449000C94490028
S11300300C9449000C9449000C9449000C94490018
S11300400C9449000C9449000C9449000C94490008
S11300500C9449000C9449000C9449000C944900F8
S11300600C9449000C94490011241FBECFEFD8E032
S1130070DEBFCDBF12E0A0E0B1E0E4E7F4E002C0EF
S113008005900D92A036B107D9F70E947F000C9419
S113009038020C9400009C0184B1806284B985B15B
S11300A0806285B984B5826084BD84B5806484BD72
S11300B085B5826085BDC901A0E0B0E0880F991FB5
S11300C0AA1FBB1F880F991FAA1FBB1F9C01AD014C
S11300D0220F331F441F551F220F331F441F551F68
S11300E060E074E284EF90E00E941602215027BD84
S11300F0089514BC15BC85B18F7D85B9089520E0A1
S113010030E016C0F901EE0FFF1FE050FF4F808171
S11301109181AC01440F551F880F991F880F991FB7
S1130120880F991F840F951F918380832F5F3F4F02
S11301302835310538F3E12CF12C4EC09701220FFC
S1130140331FF901E055FE4F80819181F901E050A0
S1130150FF4F00811181009729F40E94790080E00B
S113016090E00AC00E944B00FACFEFE9FFE031971C
S1130170F1F700C00000019680179107B4F30E94C4
S11301807900C0E0D0E007C08FE99FE00197F1F764
S113019000C000002196BE010D2E000C880B990BA7
S11301A00E94F9004B015C01B801012E000C880B80
S11301B0990B0E94F9002AE939E949E95EE30E94B2
S11301C058019B01AC01C501B4010E94F2008823CF
S11301D0DCF29FEFE91AF90AE8E5EE16F10408F4F7
S11301E0ADCFFFCF0E94340108F481E00895E89474
S11301F009C097FB3EF490958095709561957F4F6B
S11302008F4F9F4F9923A9F0F92F96E9BB27939518
S1130210F695879577956795B795F111F8CFFAF428
S1130220BB0F11F460FF1BC06F5F7F4F8F4F9F4F59
S113023016C0882311F096E911C0772321F09EE8B7
S1130240872F762F05C0662371F096E8862F70E01D
S113025060E02AF09A95660F771F881FDAF7880FF7
S11302609695879597F90895990F0008550FAA0B4D
S1130270E0E8FEEF16161706E807F907C0F01216B5
S11302801306E407F50798F0621B730B840B950BB8
S113029039F40A2661F0232B242B252B21F408950D
S11302A00A2609F4A140A6958FEF811D811D0895AA
S11302B00E946B010C94DC010E94CE0138F00E9474
S11302C0D50120F0952311F00C94C5010C94CB01B9
S11302D011240C9410020E94ED0170F3959FC1F358
S11302E0950F50E0551F629FF001729FBB27F00DE0
S11302F0B11D639FAA27F00DB11DAA1F649F662735
S1130300B00DA11D661F829F2227B00DA11D621F83
S1130310739FB00DA11D621F839FA00D611D221F3D
S1130320749F3327A00D611D231F849F600D211D21
S1130330822F762F6A2F11249F5750409AF0F1F0A4
S113034088234AF0EE0FFF1FBB1F661F771F881F0D
S113035091505040A9F79E3F510580F00C94C5017F
S11303600C9410025F3FE4F3983ED4F3869577959E
S11303706795B795F795E7959F5FC1F7FE2B880FB3
S1130380911D9695879597F9089597F99F6780E849
S113039070E060E008959FEF80EC089500240A94D3
S11303A01616170618060906089500240A9412164C
S11303B01306140605060895092E0394000C11F47F
S11303C0882352F0BB0F40F4BF2B11F460FF04C02C
S11303D06F5F7F4F8F4F9F4F089557FD9058440F85
S11303E0551F59F05F3F71F04795880F97FB991F90
S11303F061F09F3F79F0879508951216130614064D
S1130400551FF2CF4695F1DF08C0161617061806D9
S1130410991FF1CF86957105610508940895E894B4
S1130420BB2766277727CB0197F90895A1E21A2EF7
S1130430AA1BBB1BFD010DC0AA1FBB1FEE1FFF1F84
S1130440A217B307E407F50720F0A21BB30BE40BD4
S1130450F50B661F771F881F991F1A9469F760951B
S11304607095809590959B01AC01BD01CF010895D5
S1070470F894FFCF2A
S11304740C000C000C000C000C000C000C000C0014
S113048418000C000C00180018000C000C001800D4
S11304940C000C000C000C000C000C000C000C00F4
S11304A40C000C000C000C000C000C000C000C00E4
S11304B40C000C000C000C000C000C000C000C00D4
S11304C40C000C000C000C000C000C000C000C00C4
S11304D40C000C000C000C000C000C000C000C00B4
S11304E40C000C000C000C000C000C000C000C00A4
S11304F40C000C000C000C000C000C000C000C0094
S11305040C000C000C000C000C000C000C000C0083
S11305140C000C000C000C000C000C000C000C0073
S11305244D0A4D0A00004D0A00002D084D0A000032
S1130534400C000000000000200600000000000041
S11305442D0800000000200600000000270500001C
S11305540000E0060000B80700004907E0060000B8
S113056420064D0A400CC00D0000EA0A400C0000AD
S11305744D0A00002D082D09B807000000000000F2
S11305842D080000000020060000000027050000DC
S11305940000E0060000B80700004907E006000078
S11305A420064D0A400CC00D0000EA0A400C00006D
S11305B44D0A00002D082D09B807000000000000B2
S11305C420062D082705E006B8074907E00620069B
S9030000FC
