:100000000C9434000C943E000C943E000C943E0082
:100010000C943E000C943E000C943E000C943E0068
:100020000C943E000C943E000C943E000C943E0058
:100030000C943E000C943E000C943E000C943E0048
:100040000C943E000C943E000C943E000C943E0038
:100050000C943E000C943E000C943E000C943E0028
:100060000C943E000C943E0011241FBECFEFD8E04C
:10007000DEBFCDBF0E9440000C9451000C940000E4
:100080008AB18FEF8AB9F999FECF8FE590E092BDE2
:1000900081BD8FB381608FBB80B58BB980E090E06C
:0600A0000895F894FFCF63
:00000001FF
