:100000000C9434000C943E000C943E000C943E0082
:100010000C943E000C943E000C943E000C943E0068
:100020000C943E000C943E000C943E000C943E0058
:100030000C943E000C943E000C943E000C943E0048
:100040000C943E000C943E000C943E000C943E0038
:100050000C943E000C943E000C943E000C943E0028
:100060000C943E000C943E0011241FBECFEFD8E04C
:10007000DEBFCDBF0E9463000C9493000C9400007F
:1000800080E090E00BC087BD2FEF39EF40E02150BA
:1000900030404040E1F700C0000001968F3F9105DD
:1000A00094F308958FEF90E00BC087BD2FEF39EFE9
:1000B00040E0215030404040E1F700C0000001978F
:1000C00099239CF708958AB180648AB984B18062CB
:1000D00084B985B1806285B984B5826084BD84B5F8
:1000E000816084BD84B5806884BD85B5826085BD2E
:1000F00085B5816085BD0E9440002FEF89E698E1BB
:10010000215080409040E1F700C000000E94520062
:100110002FEF89E698E1215080409040E1F700C040
:0A012000000017BCD9CFF894FFCF00
:00000001FF
