:100000000C9434000C943E000C943E000C943E0082
:100010000C943E000C943E000C943E000C943E0068
:100020000C943E000C943E000C943E000C943E0058
:100030000C943E000C943E000C943E000C943E0048
:100040000C943E000C943E000C943E000C943E0038
:100050000C943E000C943E000C943E000C943E0028
:100060000C943E000C943E0011241FBECFEFD8E04C
:10007000DEBFCDBF0E9455000C9488000C94000098
:1000800088B1806188B988B18F7D88B9089588B1B9
:100090008F7E88B988B18F7D88B9089588B18F7EA9
:1000A00088B988B1806288B9089587B1806287B9BC
:1000B00087B1806187B90E9440002FEF81E19AE704
:1000C000215080409040E1F700C000000E944700AE
:1000D0002FEF81E19AE7215080409040E1F700C086
:1000E00000000E944E002FEF81E19AE721508040EE
:1000F0009040E1F700C000000E9447002FEF81E12F
:100100009AE7215080409040E1F700C00000D3CF33
:04011000F894FFCF91
:00000001FF
