S01D00004261726F6D657465722D546865726D6F6D657465722E73726563AD
S11300000C94B1000C94CE000C94CE000C94CE0051
S11300100C94CE000C94CE000C94CE000C94CE0024
S11300200C94CE000C94CE000C94CE000C94CE0014
S11300300C94CE000C94CE000C94CE000C94CE0004
S11300400C94CE000C94CE000C94CE000C94CE00F4
S11300500C94CE000C94CE000C94CE000C94CE00E4
S11300600C94CE000C94CE0000407A10F35A00A0F9
S1130070724E18090010A5D4E80000E8764817006D
S113008000E40B54020000CA9A3B000000E1F505AD
S1130090000080969800000040420F000000A086F7
S11300A001000000102700000000E8030000000029
S11300B06400000000000A000000000001000000CD
S11300C000002C76D888DC674F0823DFC1DFAE59E7
S11300D0E1B1B796E5E3E453C63AE651997696E87A
S11300E0E6C28426EB898C9B62ED407C6FFCEFBCFE
S11300F09C9F40F2BAA56FA5F490055A2AF75C9329
S11301006B6CF9676DC11BFCE0E40D47FEF520E65E
S1130110B500D0ED902E0300943577050080841E41
S1130120080000204E0A000000C80C333333330F9C
S1130130986E12831141EF8D2114893BE65516CF39
S1130140FEE6DB18D1844B381BF77C1D901DA4BB45
S1130150E424203284725E228100C9F124ECA1E5FA
S11301603D2711241FBECFEFD8E0DEBFCDBF11E085
S1130170A0E0B1E0E8EFF4E102C005900D92AE30EA
S1130180B107D9F721E0AEE0B1E001C01D92AA3277
S1130190B207E1F70E9480050C947A0A0C940000DF
S11301A040910101436A4093010180EB8093000177
S11301B064EF86E70E9476044091000165EF86E7CC
S11301C00E94760468E886E70E944E047093290131
S11301D0609328016AE886E70E944E047093270121
S11301E0609326016CE886E70E944E047093250113
S11301F060932401089540910101476140930101F6
S113020080EB8093000164EF86E70E9476044091BE
S1130210000165EF86E70E9476046EE886E70E9497
S11302204E04709323016093220160E986E70E94E3
S11302304E04709321016093200162E986E70E94D5
S11302404E0470931F0160931E0164E986E70E94C7
S11302504E0470931D0160931C0166E986E70E94B9
S11302604E0470931B0160931A0168E986E70E94AB
S11302704E0470931901609318016AE986E70E949D
S11302804E0470931701609316016CE986E70E948F
S11302904E0470931501609314016EE986E70E9481
S11302A04E04709313016093120108951F93CF932A
S11302B0DF930E9424048CEE0E942C048AEF0E9497
S11302C02C040E9424048DEE0E942C040E94360407
S11302D0182F0E943604C82F0E944004D82F0E9471
S11302E04A04812F90E0A0E0B0E0072E7CE0880F64
S11302F0991FAA1FBB1F7A95D1F7702D4C2F50E080
S113030060E070E0440F551F661F771F440F551FB0
S1130310661F771F440F551F661F771F440F551F15
S1130320661F771F842B952BA62BB72BD295DF70D6
S1130330BC01CD016D2BDF91CF911F9108954F9298
S11303405F926F927F928F929F92AF92BF92CF9261
S1130350DF92EF92FF920E9456010E94D2062B0177
S11303603C0120E030E040E858E30E9484074B0160
S11303705C01609128017091290180E090E00E9465
S1130380D2066B017C0120E030E040E85AE30E9491
S113039084079B01AC01C501B4010E94B8054B015F
S11303A05C016091260170912701072E000C880BD7
S11303B0990B0E94D4069B01AC01C501B4010E94B3
S11303C084074B015C0120E030E040E057E3C301C7
S11303D0B2010E9484072B013C0120E030E040E0A0
S11303E059E3C701B6010E9484079B01AC01C30114
S11303F0B2010E94B8059B01AC010E9484076B0105
S11304007C016091240170912501072E000C880B5A
S1130410990B0E94D4069B01AC01C701B6010E944E
S113042084079B01AC01C501B4010E94B9050E9477
S11304309C0660930E0170930F01809310019093BA
S11304401101FF90EF90DF90CF90BF90AF909F90FD
S11304508F907F906F905F904F9008951F93CF93EC
S1130460DF930E9424048CEE0E942C0487EF0E94E8
S11304702C040E9424048DEE0E942C040E94360455
S1130480182F0E943604C82F0E944004D82F0E94BF
S11304904A04812F90E0A0E0B0E0072E7CE0880FB2
S11304A0991FAA1FBB1F7A95D1F7702D4C2F50E0CE
S11304B060E070E0440F551F661F771F440F551FFF
S11304C0661F771F440F551F661F771F440F551F64
S11304D0661F771F842B952BA62BB72BD295DF7025
S11304E0BC01CD016D2BDF91CF911F9108950E9426
S11304F09F0160910E0170910F0180911001909104
S113050011010E94D20620E030E040EA55E40E9446
S11305102A0608954F925F926F927F928F929F92D4
S1130520AF92BF92CF92DF92EF92FF92CF93DF937D
S113053000D000D0CDB7DEB70E942E022B013C01C3
S113054060910E0170910F01809110019091110141
S11305500E94D20620E030E040E05FE30E9484077E
S113056020E030E04AE757E40E94B8056B017C01C3
S11305709B01AC010E9484074B015C01609118014E
S113058070911901072E000C880B990B0E94D40658
S11305909B01AC01C501B4010E94840720E030E056
S11305A040E058E30E9484074B015C0160911A010A
S11305B070911B01072E000C880B990B0E94D40626
S11305C09B01AC01C701B6010E9484079B01AC01E9
S11305D00E94B9059B01AC01C501B4010E94B90593
S11305E020E030E040E85EE30E9484074B015C01B8
S11305F060911C0170911D01072E000C880B990B52
S11306000E94D40620E030E040E857E40E948407CA
S11306109B01AC01C501B4010E94B90569837A83C9
S11306208B839C8360911E0170911F01072E000C27
S1130630880B990B0E94D4069B01AC01C701B6013B
S11306400E9484079B01AC01C701B6010E94840784
S113065020E030E040E056E30E9484074B015C0157
S11306606091200170912101072E000C880B990BD9
S11306700E94D4069B01AC01C701B6010E94840705
S11306809B01AC01C501B4010E94B90520E030E032
S113069040E056E30E94840720E030E040E058E365
S11306A00E94840720E030E040E85FE30E94B9053F
S11306B06B017C01609122017091230180E090E044
S11306C00E94D2069B01AC01C701B6010E948407B7
S11306D06B017C0120E030E0A9010E9425068823FB
S11306E009F487C0C301B2010E94D2069B01AC0188
S11306F060E070E080E899E40E94B8054B015C0179
S113070020E030E040E859E369817A818B819C8163
S11307100E9484079B01AC01C501B4010E94B80585
S113072020E030E543EC55E40E948407A7019601DC
S11307300E942A066B017C016091120170911301E1
S1130740072E000C880B990B0E94D4069B01AC0168
S1130750C701B6010E9484079B01AC01C701B60121
S11307600E94840720E030E040E050E30E948407C8
S11307704B015C016091140170911501072E000C6E
S1130780880B990B0E94D4069B01AC01C701B601EA
S11307900E94840720E030E040E058E30E94840790
S11307A09B01AC01C501B4010E94B9054B015C0178
S11307B06091160170911701072E000C880B990B9C
S11307C00E94D4069B01AC01C501B4010E94B90585
S11307D020E030E040E85DE30E9484079B01AC0127
S11307E0C701B6010E94B905562F472F382F292F6C
S11307F004C050E040E030E020E0652F742F832FE8
S1130800922F0F900F900F900F90DF91CF91FF9048
S1130810EF90DF90CF90BF90AF909F908F907F909C
S11308206F905F904F900895E4E6F0E080818F77B9
S1130830808388E48093B800ECEBF0E080818460EE
S113084080831092B900089584EA8093BC0080915B
S1130850BC008823E4F708958093BB0084E8809368
S1130860BC008091BC008823E4F7089584EC809355
S1130870BC008091BC008823E4F78091BB000895FC
S113088084E88093BC008091BC008823E4F78091C5
S1130890BB00089584E98093BC000895CF93DF934F
S11308A0C82FD62F0E9424048C2F880F0E942C045A
S11308B08D2F0E942C040E9424048C2F90E0880F1A
S11308C0991F81600E942C040E943604D82F0E9434
S11308D04004C82F0E944A046C2F70E0762F6627CC
S11308E06D2B80E090E0DF91CF9108951F93CF931B
S11308F0DF93182FD62FC42F0E942404812F880F32
S11309000E942C048D2F0E942C048C2F0E942C04F6
S11309100E944A04DF91CF911F91089588B18260AB
S113092088B985E08A95F1F7000088B18D7F88B990
S113093087EC90E00197F1F700C0000008959BB1A7
S11309409F709BB983FF03C09BB190689BB982FFE2
S113095003C09BB190649BB981FF03C09BB19062BB
S11309609BB980FF03C08BB180618BB90E948E0458
S11309700895CF93C82F613021F488B1816088B97C
S113098003C088B18E7F88B98C2F82958F700E94A6
S11309909F048C2F8F700E949F04CF910895CF9352
S11309A0C82F60E00E94B90485ED8A95F1F7000034
S11309B0C150C23030F48FE39FE10197F1F700C0DA
S11309C00000CF91089561E00E94B90485ED8A95F5
S11309D0F1F700000895CF93DF93EC0103C0219653
S11309E00E94E30488818111FACFDF91CF910895A9
S11309F00F931F93CF93DF93CDB7DEB7A8970FB6AE
S1130A00F894DEBF0FBECDBF8E010F5F1F4F23E0F2
S1130A1044E00E94F107C8010E94EB04A8960FB6B7
S1130A20F894DEBF0FBECDBFDF91CF911F910F9120
S1130A30089582E00E94CF040895882311F080E491
S1130A4001C080E0860F80680E94CF04089587B1BA
S1130A50836087B98AB1806F8AB92FEF89EF90E0FC
S1130A60215080409040E1F700C0000088B18E7FA3
S1130A7088B988B18D7F88B983E00E949F048FE193
S1130A809EE40197F1F700C0000083E00E949F04F8
S1130A9087E592E00197F1F700C0000083E00E942F
S1130AA09F0487E592E00197F1F700C0000082E01F
S1130AB00E949F0487E592E00197F1F700C00000CF
S1130AC088E20E94CF0495ED9A95F1F7000088E042
S1130AD00E94CF0425ED2A95F1F7000081E00E94E1
S1130AE0CF0485ED8A95F1F7000086E00E94CF04DB
S1130AF095ED9A95F1F700008CE00E94CF040895DB
S1130B000E9427050E9414040E94D0000E94FB004A
S1130B1082E091E00E94EB040E9477020E94F804B4
S1130B208FED0E94E30483E40E94E30460E081E02B
S1130B300E941D0586E091E00E94EB040E948A0257
S1130B4020E030E048EC52E40E942A060E94F804B7
S1130B508AE091E00E94EB042FEF83ED90E32150B3
S1130B6080409040E1F700C000000E941905D0CFFA
S1130B705058BB27AA270E94D0050C944A070E940C
S1130B803C0738F00E94430720F039F49F3F19F4E2
S1130B9026F40C9439070EF4E095E7FB0C94330724
S1130BA0E92F0E945B0758F3BA176207730784079B
S1130BB0950720F079F4A6F50C947D070EF4E095E2
S1130BC00B2EBA2FA02D0B01B90190010C01CA0103
S1130BD0A0011124FF27591B99F0593F50F4503EAE
S1130BE068F11A16F040A22F232F342F4427585FA0
S1130BF0F3CF469537952795A795F0405395C9F7B8
S1130C007EF41F16BA0B620B730B840BBAF091506F
S1130C10A1F0FF0FBB1F661F771F881FC2F70EC00E
S1130C20BA0F621F731F841F48F4879577956795E1
S1130C30B795F7959E3F08F0B0CF9395880F08F0CD
S1130C409927EE0F9795879508950E940F0708F44A
S1130C5081E008950E943E060C944A070E944307CF
S1130C6058F00E943C0740F029F45F3F29F00C94AF
S1130C70330751110C947E070C9439070E945B07CB
S1130C8068F39923B1F3552391F3951B550BBB27B7
S1130C90AA2762177307840738F09F5F5F4F220FFC
S1130CA0331F441FAA1FA9F335D00E2E3AF0E0E8F3
S1130CB032D091505040E695001CCAF72BD0FE2F3D
S1130CC029D0660F771F881FBB1F261737074807D1
S1130CD0AB07B0E809F0BB0B802DBF01FF27935889
S1130CE05F4F3AF09E3F510578F00C9433070C9413
S1130CF07E075F3FE4F3983ED4F386957795679536
S1130D00B795F7959F5FC9F7880F911D96958795BD
S1130D1097F90895E1E0660F771F881FBB1F6217DC
S1130D2073078407BA0720F0621B730B840BBA0B9A
S1130D30EE1F88F7E09508950E94A3066894B11108
S1130D400C947E0708950E94630788F09F5798F0DB
S1130D50B92F9927B751B0F0E1F0660F771F881FBC
S1130D60991F1AF0BA95C9F714C0B13091F00E94D6
S1130D707D07B1E008950C947D07672F782F8827AD
S1130D80B85F39F0B93FCCF3869577956795B395FD
S1130D90D9F73EF490958095709561957F4F8F4F6C
S1130DA09F4F0895E89409C097FB3EF49095809571
S1130DB0709561957F4F8F4F9F4F9923A9F0F92F1D
S1130DC096E9BB279395F695879577956795B7959B
S1130DD0F111F8CFFAF4BB0F11F460FF1BC06F5F81
S1130DE07F4F8F4F9F4F16C0882311F096E911C093
S1130DF0772321F09EE8872F762F05C0662371F0B4
S1130E0096E8862F70E060E02AF09A95660F771FC7
S1130E10881FDAF7880F9695879597F90895990FA3
S1130E200008550FAA0BE0E8FEEF16161706E807B0
S1130E30F907C0F012161306E407F50798F0621BD1
S1130E40730B840B950B39F40A2661F0232B242BA6
S1130E50252B21F408950A2609F4A140A6958FEFC5
S1130E60811D811D089597F99F6780E870E060E017
S1130E7008959FEF80EC089500240A94161617062F
S1130E8018060906089500240A9412161306140677
S1130E9005060895092E0394000C11F4882352F0DA
S1130EA0BB0F40F4BF2B11F460FF04C06F5F7F4F92
S1130EB08F4F9F4F089557FD9058440F551F59F079
S1130EC05F3F71F04795880F97FB991F61F09F3F33
S1130ED079F087950895121613061406551FF2CF5C
S1130EE04695F1DF08C0161617061806991FF1CFAC
S1130EF086957105610508940895E894BB276627D3
S1130F007727CB0197F908950E9497070C944A0715
S1130F100E943C0738F00E94430720F0952311F00B
S1130F200C9433070C94390711240C947E070E9407
S1130F305B0770F3959FC1F3950F50E0551F629FB7
S1130F40F001729FBB27F00DB11D639FAA27F00D1E
S1130F50B11DAA1F649F6627B00DA11D661F829F45
S1130F602227B00DA11D621F739FB00DA11D621F2A
S1130F70839FA00D611D221F749F3327A00D611D47
S1130F80231F849F600D211D822F762F6A2F112429
S1130F909F5750409AF0F1F088234AF0EE0FFF1F5C
S1130FA0BB1F661F771F881F91505040A9F79E3FB3
S1130FB0510580F00C9433070C947E075F3FE4F3F3
S1130FC0983ED4F3869577956795B795F795E79509
S1130FD09F5FC1F7FE2B880F911D9695879597F912
S1130FE00895EF920F931F93CF93DF93E80147FD8A
S1130FF002C034E001C034E1042E000C550B57FF4D
S113100003C0519541955109E32E022F242FAE01BF
S11310100E941108CE01DF91CF911F910F91EF90A3
S11310200895A9E0B0E0E7E1F8E00C94490A6A0108
S1131030122FB02E2BE3201720F0FF24F394F00E90
S113104002C02CE3F22E0F2D27E0AE014F5F5F4F5D
S11310500E946B09BC014981842F8970813031F071
S1131060E1FC06C0E0FE06C090E205C09DE203C0BC
S11310709BE201C090E05E2D507143FF3CC0911192
S113108002C083E001C084E0811718F4212F281BDB
S113109001C020E051110BC0F601822F30E28823F9
S11310A019F031938150FBCFC20ED11C20E099235B
S11310B029F0D6019C93F60131966F01C60103967F
S11310C0E2FE0AC03EE4D6013C9341E411964C93FF
S11310D0119712963C9306C03EE6F601308341E632
S11310E041833283FC01322F40E2332309F442C0AE
S11310F041933150FACF42FF44C0911102C083E0C2
S113110001C084E0811718F4212F281B01C020E0BE
S113111051110BC0F601822F30E2882319F031936C
S11311208150FBCFC20ED11C20E0992329F0D601B7
S11311309C93F60131966F01C6010396E2FE0BC043
S113114039E4D6013C933EE411963C93119736E47E
S113115012963C9307C039E6F60130833EE63183AC
S113116036E63283FC01322F40E2332319F04193F7
S11311703150FBCFFC01E20FF11D10828EEF9FEF87
S1131180A6C021E030E0911102C020E030E0161644
S113119017061CF4FB01319602C0E1E0F0E02E0FCB
S11311A03F1FBB2021F0EB2DF0E0319602C0E0E0C0
S11311B0F0E02E0F3F1FE12FF0E02E173F071CF445
S11311C0121B212F01C020E08E2D887159F4F601E5
S11311D0822F30E2882319F031938150FBCFC20E65
S11311E0D11C20E0992329F0D6019C93F601319675
S11311F06F0151110BC0F601822F90E3882319F07F
S113120091938150FBCFC20ED11C20E00F2D060F0D
S11312109A81342F307144FF03C0913309F4015093
S1131220101624F4093018F008E001C001E0AB0105
S113123077FF02C040E050E0FB01E41BF50BA1E0A6
S1131240B0E0AC0FBD1FEA0FFB1F8EE2A82E4B01CE
S1131250801A91080B2D10E01195019511094F3F4B
S1131260BFEF5B0721F4D601AC9211966D016417B0
S113127075072CF08416950614F4818101C080E36F
S1131280415051093196D60111967D0140175107FD
S113129024F0D6018C936701E2CF6417750739F403
S11312A0963320F4953319F4311101C081E3F6012A
S11312B08083F701822F90E2882319F09193815063
S11312C0FBCFF701E20FF11D108280E090E0299638
S11312D0ECE00C94650A283008F027E03327DA01A3
S11312E0990F311D87FD916000966105710539F4F0
S11312F032602E5F3D9330E32A95E1F708959F3FD6
S113130030F080387105610509F03C5F3C5F3D9326
S1131310913008F08068911DDF93CF931F930F9352
S1131320FF92EF92192F987F9695E92F96959695AF
S1131330E90FFF27EE53FF4F99273327EE24FF24AD
S1131340A701E70105900894079428F4360FE71ED7
S1131350F81E491F511D660F771F881F991F069499
S1131360A1F70590079428F4E70EF81E491F561FAD
S1131370C11D770F881F991F661F0694A1F705905A
S1131380079428F4F80E491F561FC71FD11D880F54
S1131390991F661F771F0694A1F70590079420F400
S11313A0490F561FC71FD81F990F661F771F881F25
S11313B00694A9F784911095177041F0D695C795B6
S11313C057954795F794E7941A95C1F7E8E6F0E046
S11313D068941590159135916591959105907FE2EA
S11313E07395E118F10A430B560BC90BD009C0F7EA
S11313F0E10CF11E431F561FC91FD01D7EF470332C
S113140011F48A95E6CFE894015030F0080F0AF4FD
S11314100027021708F4202F2395022F7A3328F08F
S113142079E37D932A95E9F710C07D932A9589F68F
S1131430069497956795379517951794E118F10ACF
S1131440430B560BC90BD00998F023957E917395E5
S11314507A3308F070E37C932013B8F77E917061BF
S11314607D9330F0839571E37D9370E32A95E1F7E2
S11314701124EF90FF900F911F91CF91DF91992745
S113148087FD909508952F923F924F925F926F92AD
S11314907F928F929F92AF92BF92CF92DF92EF9200
S11314A0FF920F931F93CF93DF93CDB7DEB7CA1B81
S11314B0DB0B0FB6F894DEBF0FBECDBF09942A88AC
S11314C0398848885F846E847D848C849B84AA8454
S11314D0B984C884DF80EE80FD800C811B81AA81E1
S11314E0B981CE0FD11D0FB6F894DEBF0FBECDBFAC
S10B14F0ED010895F894FFCF0B
S11114F8F0F0543A2000503A20006850610091
S9030000FC
