:100000000C9434000C943E000C943E000C943E0082
:100010000C943E000C943E000C943E000C943E0068
:100020000C943E000C943E000C943E000C943E0058
:100030000C943E000C943E000C943E000C943E0048
:100040000C943E000C943E000C943E000C943E0038
:100050000C943E000C943E000C943E000C943E0028
:100060000C943E000C943E0011241FBECFEFD8E04C
:10007000DEBFCDBF0E9440000C9471000C940000C4
:100080000E9468000E944B000E946C0080ED97E087
:100090000E945B00F9CF84B5826084BD16BC89EFF5
:1000A00087BD85B5816085BD85B5826085BD85B319
:1000B000826085BB089506C0A99BFECF85B3826090
:1000C00085BBC9019C0121503109892BA9F70895ED
:1000D00084B18E6384B9089595B18EE3892785B97B
:0600E0000895F894FFCF23
:00000001FF
