S010000054696D6572305F322E7372656352
S11300000C9434000C943E000C943E000C943E007E
S11300100C943E000C943E000C943E000C943E0064
S11300200C943E000C943E000C943E000C943E0054
S11300300C943E000C943E000C943E000C943E0044
S11300400C943E000C943E000C943E000C943E0034
S11300500C943E000C943E000C943E000C943E0024
S11300600C943E000C943E0011241FBECFEFD8E048
S1130070DEBFCDBF0E9456000C9460000C940000BB
S113008020E030E00FC016BC14BC85B5846085BD8B
S113009085B5816085BD85B3816085BBA89BFECF96
S11300A02F5F3F4F2D33310574F3089584B180627F
S11300B084B995B180E2892785B90E944000F9CFBF
S10700C0F894FFCFDE
S9030000FC
