S01B0000537769746368284163746976655F48696768292E737265630B
S11300000C9434000C943E000C943E000C943E007E
S11300100C943E000C943E000C943E000C943E0064
S11300200C943E000C943E000C943E000C943E0054
S11300300C943E000C943E000C943E000C943E0044
S11300400C943E000C943E000C943E000C943E0034
S11300500C943E000C943E000C943E000C943E0024
S11300600C943E000C943E0011241FBECFEFD8E048
S1130070DEBFCDBF0E9440000C9450000C940000E1
S11300808AB188608AB987B18E7F87B9309B04C0F2
S11300908BB188608BB9FACF8BB1877F8BB9F6CFE0
S10700A0F894FFCFFE
S9030000FC
