S00B00004144432E7372656351
S11300000C9434000C9449000C9449000C9449005D
S11300100C9449000C9449000C9449000C94490038
S11300200C9449000C9449000C9449000C94490028
S11300300C9449000C9449000C9449000C94490018
S11300400C9449000C9449000C9449000C94490008
S11300500C9449000C9449000C9449000C944900F8
S11300600C9449000C94490011241FBECFEFD8E032
S1130070DEBFCDBF11E0A0E0B1E0ECE2F3E002C0EE
S113008005900D92AE30B107D9F70E9461010C942E
S113009094010C94000080EC80937C00EAE7F0E08B
S11300A080E88083808187608083089587709927A2
S11300B0EAE7F0E0908190649083ECE7F0E09081CF
S11300C0987F892B808380917A0086FDFCCF2091D4
S11300D078008091790090E0982F8827822B0895EA
S11300E085B1886085B985E08A95F1F7000085B10E
S11300F0877F85B987EC90E00197F1F700C0000095
S113010008959BB1937C9BB983FF03C09BB194601A
S11301109BB982FF03C09BB198609BB981FF03C068
S11301209BB190619BB980FF03C08BB180628BB996
S11301300E9470000895CF93C82F613021F485B1D7
S1130140806185B903C085B18F7E85B98C2F829576
S11301508F700E9481008C2F8F700E948100CF913C
S11301600895CF93C82F60E00E949B00C150C23015
S113017030F48FE39FE10197F1F700C00000CF91C5
S1130180089561E00E949B000895882311F090E493
S113019001C090E0862F8F70890F80680E94B100A3
S11301A00895CF93DF93EC0103C021960E94C10010
S11301B088818111FACFDF91CF91089581E00E9467
S11301C0B100089584B1806184B984B1886084B930
S11301D08AB18C638AB92FEF89EF90E02150804077
S11301E09040E1F700C0000085B18F7E85B985B1EC
S11301F0877F85B983E00E9481008FE19EE40197A7
S1130200F1F700C0000083E00E94810087E592E0DE
S11302100197F1F700C0000083E00E94810087E5A8
S113022092E00197F1F700C0000082E00E94810093
S113023087E592E00197F1F700C0000088E20E9490
S1130240B10088E00E94B10081E00E94B10086E024
S11302500E94B1008CE00E94B1000895CF93DF9317
S1130260EC018A30910568F09C01ADECBCEC0E9475
S113027085019695879596958795969587950E947D
S11302802E019E01ADECBCEC0E94850196958795EC
S113029096958795969587959C01220F331F880F15
S11302A0991F880F991F880F991F820F931F9E0112
S11302B0281B390BC901805D0E94C100DF91CF91D9
S11302C008950E94E2000E944B000E94DE0081E03B
S11302D090E00E945600EC0160E080E00E94C500BE
S11302E080E091E00E94D100CE010E942E0160E0E6
S11302F081E00E94C5002FEF83ED90E32150804000
S11303009040E1F700C00000E0CFA29FB001B39F8E
S1130310C001A39F700D811D1124911DB29F700D0A
S10F0320811D1124911D0895F894FFCF55
S111032C4144432076616C7565203A20000040
S9030000FC
