:100000000C9434000C9449000C9449000C94490061
:100010000C9449000C9449000C9449000C9449003C
:100020000C9449000C9449000C9449000C9449002C
:100030000C9449000C9449000C9449000C9449001C
:100040000C9449000C9449000C9449000C9449000C
:100050000C9449000C9449000C9449000C944900FC
:100060000C9449000C94490011241FBECFEFD8E036
:10007000DEBFCDBF11E0A0E0B1E0EEE2F1E002C0F2
:1000800005900D92A832B107D9F70E945C000C943C
:1000900095000C9400009091C00095FFFCCF8093D8
:1000A000C600089587E68093C40088E08093C1006D
:1000B00086E08093C2000895CF93DF93CDB7DEB77B
:1000C000A8970FB6F894DEBF0FBECDBF88E2E0E080
:1000D000F1E0DE01119601900D928A95E1F70E9400
:1000E000520000E010E00BC0E1E0F0E0EC0FFD1F7B
:1000F000E00FF11F80810E944B000F5F1F4FDE0158
:100100001196FD0101900020E9F73197EA1BFB0BE6
:100110000E171F0748F32FEF83ED90E32150804027
:0E0120009040E1F700C00000DCCFF894FFCF64
:10012E0048656C6C6F202C74686973206D657373F1
:10013E006167652069732066726F6D2041546D652D
:08014E0067613332382E0A000C
:00000001FF
