:100000000C945A000C9464000C9464000C946400EA
:100010000C9464000C9464000C9464000C946400D0
:100020000C9464000C9464000C9464000C946400C0
:100030000C9464000C9464000C9464000C946400B0
:100040000C9464000C9464000C9464000C946400A0
:100050000C9464000C9464000C9464000C94640090
:100060000C9464000C9464000C9464000C94640080
:100070000C9464000C9464000C9464000C94640070
:100080000C9464000C9464000C9464000C94640060
:100090000C9464000C9464000C9464000C94640050
:1000A0000C9464000C9464000C9464000C94640040
:1000B0000C94640011241FBECFEFD8E0DEBFCDBF8B
:1000C0000E9466000C94B5000C94000084B180621C
:1000D00084B984B1806284B98AB18B7F8AB94A9B22
:1000E0003DC085B1806285B985B18F7E85B92FEF1E
:1000F00083ED90E3215080409040E1F700C0000084
:1001000085B18F7D85B985B18F7E85B92FEF8BE75E
:1001100092E9215080409040E1F700C0000085B195
:100120008F7D85B985B1806185B92FEF83ED90E32F
:10013000215080409040E1F700C0000085B18F7DE4
:1001400085B985B18F7E85B92FEF8BE792E9215074
:1001500080409040E1F700C00000C1CF85B18F7DA5
:0E01600085B985B18F7E85B9BACFF894FFCFEF
:00000001FF
